{
  "_format": "hh-sol-artifact-1",
  "contractName": "VerifySignature",
  "sourceName": "contracts/VerifySignature.sol",
  "abi": [
    {
      "inputs": [],
      "stateMutability": "nonpayable",
      "type": "constructor"
    },
    {
      "inputs": [
        {
          "internalType": "bytes32",
          "name": "_messageHash",
          "type": "bytes32"
        }
      ],
      "name": "getEthSignedMessageHash",
      "outputs": [
        {
          "internalType": "bytes32",
          "name": "",
          "type": "bytes32"
        }
      ],
      "stateMutability": "pure",
      "type": "function"
    },
    {
      "inputs": [
        {
          "internalType": "string",
          "name": "_message",
          "type": "string"
        }
      ],
      "name": "getMessageHash",
      "outputs": [
        {
          "internalType": "bytes32",
          "name": "",
          "type": "bytes32"
        }
      ],
      "stateMutability": "pure",
      "type": "function"
    },
    {
      "inputs": [
        {
          "internalType": "string",
          "name": "meetingId",
          "type": "string"
        },
        {
          "internalType": "address",
          "name": "creator",
          "type": "address"
        },
        {
          "internalType": "address[]",
          "name": "selectedParticipants",
          "type": "address[]"
        }
      ],
      "name": "mapParticipantsToMeeting",
      "outputs": [],
      "stateMutability": "nonpayable",
      "type": "function"
    },
    {
      "inputs": [
        {
          "internalType": "bytes32",
          "name": "_ethSignedMessageHash",
          "type": "bytes32"
        },
        {
          "internalType": "bytes",
          "name": "_signature",
          "type": "bytes"
        }
      ],
      "name": "recoverSigner",
      "outputs": [
        {
          "internalType": "address",
          "name": "",
          "type": "address"
        }
      ],
      "stateMutability": "pure",
      "type": "function"
    },
    {
      "inputs": [
        {
          "internalType": "bytes",
          "name": "sig",
          "type": "bytes"
        }
      ],
      "name": "splitSignature",
      "outputs": [
        {
          "internalType": "bytes32",
          "name": "r",
          "type": "bytes32"
        },
        {
          "internalType": "bytes32",
          "name": "s",
          "type": "bytes32"
        },
        {
          "internalType": "uint8",
          "name": "v",
          "type": "uint8"
        }
      ],
      "stateMutability": "pure",
      "type": "function"
    },
    {
      "inputs": [
        {
          "internalType": "string",
          "name": "meetingId",
          "type": "string"
        },
        {
          "internalType": "bytes",
          "name": "signature",
          "type": "bytes"
        }
      ],
      "name": "verifyUserAccess",
      "outputs": [
        {
          "internalType": "bool",
          "name": "",
          "type": "bool"
        }
      ],
      "stateMutability": "view",
      "type": "function"
    }
  ],
  "bytecode": "0x6080604052348015600f57600080fd5b50336000806101000a81548173ffffffffffffffffffffffffffffffffffffffff021916908373ffffffffffffffffffffffffffffffffffffffff160217905550610ebf8061005f6000396000f3fe608060405234801561001057600080fd5b50600436106100625760003560e01c8063309c1ebb1461006757806397aba7f914610083578063a7bb5803146100b3578063ace5e875146100e5578063b446f3b214610115578063fa54080114610145575b600080fd5b610081600480360381019061007c919061073d565b610175565b005b61009d6004803603810190610098919061089f565b610303565b6040516100aa919061090a565b60405180910390f35b6100cd60048036038101906100c89190610925565b610372565b6040516100dc93929190610999565b60405180910390f35b6100ff60048036038101906100fa91906109d0565b6103da565b60405161010c9190610a63565b60405180910390f35b61012f600480360381019061012a9190610a7e565b61045d565b60405161013c9190610ac7565b60405180910390f35b61015f600480360381019061015a9190610ae2565b61048d565b60405161016c9190610ac7565b60405180910390f35b60008054906101000a900473ffffffffffffffffffffffffffffffffffffffff1673ffffffffffffffffffffffffffffffffffffffff163373ffffffffffffffffffffffffffffffffffffffff1614610203576040517f08c379a00000000000000000000000000000000000000000000000000000000081526004016101fa90610b6c565b60405180910390fd5b8173ffffffffffffffffffffffffffffffffffffffff163373ffffffffffffffffffffffffffffffffffffffff1614610271576040517f08c379a000000000000000000000000000000000000000000000000000000000815260040161026890610bfe565b60405180910390fd5b60005b81518110156102fd5760008483838151811061029357610292610c1e565b5b60200260200101516040516020016102ac929190610d06565b604051602081830303815290604052805190602001209050600180600083815260200190815260200160002060006101000a81548160ff021916908315150217905550508080600101915050610274565b50505050565b60008060008061031285610372565b9250925092506001868285856040516000815260200160405260405161033b9493929190610d2e565b6020604051602081039080840390855afa15801561035d573d6000803e3d6000fd5b50505060206040510351935050505092915050565b600080600060418451146103bb576040517f08c379a00000000000000000000000000000000000000000000000000000000081526004016103b290610dbf565b60405180910390fd5b6020840151925060408401519150606084015160001a90509193909250565b6000806103e68461045d565b905060006103f38261048d565b905060006104018286610303565b905060008682604051602001610418929190610d06565b6040516020818303038152906040528051906020012090506001600082815260200190815260200160002060009054906101000a900460ff1694505050505092915050565b6000816040516020016104709190610ddf565b604051602081830303815290604052805190602001209050919050565b6000816040516020016104a09190610e63565b604051602081830303815290604052805190602001209050919050565b6000604051905090565b600080fd5b600080fd5b600080fd5b600080fd5b6000601f19601f8301169050919050565b7f4e487b7100000000000000000000000000000000000000000000000000000000600052604160045260246000fd5b610524826104db565b810181811067ffffffffffffffff82111715610543576105426104ec565b5b80604052505050565b60006105566104bd565b9050610562828261051b565b919050565b600067ffffffffffffffff821115610582576105816104ec565b5b61058b826104db565b9050602081019050919050565b82818337600083830152505050565b60006105ba6105b584610567565b61054c565b9050828152602081018484840111156105d6576105d56104d6565b5b6105e1848285610598565b509392505050565b600082601f8301126105fe576105fd6104d1565b5b813561060e8482602086016105a7565b91505092915050565b600073ffffffffffffffffffffffffffffffffffffffff82169050919050565b600061064282610617565b9050919050565b61065281610637565b811461065d57600080fd5b50565b60008135905061066f81610649565b92915050565b600067ffffffffffffffff8211156106905761068f6104ec565b5b602082029050602081019050919050565b600080fd5b60006106b96106b484610675565b61054c565b905080838252602082019050602084028301858111156106dc576106db6106a1565b5b835b8181101561070557806106f18882610660565b8452602084019350506020810190506106de565b5050509392505050565b600082601f830112610724576107236104d1565b5b81356107348482602086016106a6565b91505092915050565b600080600060608486031215610756576107556104c7565b5b600084013567ffffffffffffffff811115610774576107736104cc565b5b610780868287016105e9565b935050602061079186828701610660565b925050604084013567ffffffffffffffff8111156107b2576107b16104cc565b5b6107be8682870161070f565b9150509250925092565b6000819050919050565b6107db816107c8565b81146107e657600080fd5b50565b6000813590506107f8816107d2565b92915050565b600067ffffffffffffffff821115610819576108186104ec565b5b610822826104db565b9050602081019050919050565b600061084261083d846107fe565b61054c565b90508281526020810184848401111561085e5761085d6104d6565b5b610869848285610598565b509392505050565b600082601f830112610886576108856104d1565b5b813561089684826020860161082f565b91505092915050565b600080604083850312156108b6576108b56104c7565b5b60006108c4858286016107e9565b925050602083013567ffffffffffffffff8111156108e5576108e46104cc565b5b6108f185828601610871565b9150509250929050565b61090481610637565b82525050565b600060208201905061091f60008301846108fb565b92915050565b60006020828403121561093b5761093a6104c7565b5b600082013567ffffffffffffffff811115610959576109586104cc565b5b61096584828501610871565b91505092915050565b610977816107c8565b82525050565b600060ff82169050919050565b6109938161097d565b82525050565b60006060820190506109ae600083018661096e565b6109bb602083018561096e565b6109c8604083018461098a565b949350505050565b600080604083850312156109e7576109e66104c7565b5b600083013567ffffffffffffffff811115610a0557610a046104cc565b5b610a11858286016105e9565b925050602083013567ffffffffffffffff811115610a3257610a316104cc565b5b610a3e85828601610871565b9150509250929050565b60008115159050919050565b610a5d81610a48565b82525050565b6000602082019050610a786000830184610a54565b92915050565b600060208284031215610a9457610a936104c7565b5b600082013567ffffffffffffffff811115610ab257610ab16104cc565b5b610abe848285016105e9565b91505092915050565b6000602082019050610adc600083018461096e565b92915050565b600060208284031215610af857610af76104c7565b5b6000610b06848285016107e9565b91505092915050565b600082825260208201905092915050565b7f4f6e6c79206f776e65722063616e206d6170207061727469636970616e747300600082015250565b6000610b56601f83610b0f565b9150610b6182610b20565b602082019050919050565b60006020820190508181036000830152610b8581610b49565b9050919050565b7f4f6e6c792063726561746f722063616e206d6170207061727469636970616e7460008201527f7300000000000000000000000000000000000000000000000000000000000000602082015250565b6000610be8602183610b0f565b9150610bf382610b8c565b604082019050919050565b60006020820190508181036000830152610c1781610bdb565b9050919050565b7f4e487b7100000000000000000000000000000000000000000000000000000000600052603260045260246000fd5b600081519050919050565b600081905092915050565b60005b83811015610c81578082015181840152602081019050610c66565b60008484015250505050565b6000610c9882610c4d565b610ca28185610c58565b9350610cb2818560208601610c63565b80840191505092915050565b60008160601b9050919050565b6000610cd682610cbe565b9050919050565b6000610ce882610ccb565b9050919050565b610d00610cfb82610637565b610cdd565b82525050565b6000610d128285610c8d565b9150610d1e8284610cef565b6014820191508190509392505050565b6000608082019050610d43600083018761096e565b610d50602083018661098a565b610d5d604083018561096e565b610d6a606083018461096e565b95945050505050565b7f496e76616c6964207369676e6174757265206c656e6774680000000000000000600082015250565b6000610da9601883610b0f565b9150610db482610d73565b602082019050919050565b60006020820190508181036000830152610dd881610d9c565b9050919050565b6000610deb8284610c8d565b915081905092915050565b7f19457468657265756d205369676e6564204d6573736167653a0a333200000000600082015250565b6000610e2c601c83610c58565b9150610e3782610df6565b601c82019050919050565b6000819050919050565b610e5d610e58826107c8565b610e42565b82525050565b6000610e6e82610e1f565b9150610e7a8284610e4c565b6020820191508190509291505056fea2646970667358221220af3064362f10f74ddbe158fd11645fe546920f4d5e557930e558f55e1d9c527664736f6c634300081c0033",
  "linkReferences": {},
  "deployedLinkReferences": {}
}