{
  "_format": "hh-sol-artifact-1",
  "contractName": "VerifySignature",
  "sourceName": "contracts/VerifySignature.sol",
  "abi": [
    {
      "inputs": [
        {
          "internalType": "bytes32",
          "name": "_messageHash",
          "type": "bytes32"
        }
      ],
      "name": "getEthSignedMessageHash",
      "outputs": [
        {
          "internalType": "bytes32",
          "name": "",
          "type": "bytes32"
        }
      ],
      "stateMutability": "pure",
      "type": "function"
    },
    {
      "inputs": [
        {
          "internalType": "string",
          "name": "_message",
          "type": "string"
        }
      ],
      "name": "getMessageHash",
      "outputs": [
        {
          "internalType": "bytes32",
          "name": "",
          "type": "bytes32"
        }
      ],
      "stateMutability": "pure",
      "type": "function"
    },
    {
      "inputs": [
        {
          "internalType": "string",
          "name": "_message",
          "type": "string"
        },
        {
          "internalType": "address",
          "name": "_publicKey",
          "type": "address"
        }
      ],
      "name": "mapStringToPublicKey",
      "outputs": [],
      "stateMutability": "nonpayable",
      "type": "function"
    },
    {
      "inputs": [
        {
          "internalType": "bytes32",
          "name": "_ethSignedMessageHash",
          "type": "bytes32"
        },
        {
          "internalType": "bytes",
          "name": "_signature",
          "type": "bytes"
        }
      ],
      "name": "recoverSigner",
      "outputs": [
        {
          "internalType": "address",
          "name": "",
          "type": "address"
        }
      ],
      "stateMutability": "pure",
      "type": "function"
    },
    {
      "inputs": [
        {
          "internalType": "bytes",
          "name": "sig",
          "type": "bytes"
        }
      ],
      "name": "splitSignature",
      "outputs": [
        {
          "internalType": "bytes32",
          "name": "r",
          "type": "bytes32"
        },
        {
          "internalType": "bytes32",
          "name": "s",
          "type": "bytes32"
        },
        {
          "internalType": "uint8",
          "name": "v",
          "type": "uint8"
        }
      ],
      "stateMutability": "pure",
      "type": "function"
    },
    {
      "inputs": [
        {
          "internalType": "string",
          "name": "_message",
          "type": "string"
        },
        {
          "internalType": "bytes",
          "name": "signature",
          "type": "bytes"
        }
      ],
      "name": "verify",
      "outputs": [
        {
          "internalType": "bool",
          "name": "",
          "type": "bool"
        }
      ],
      "stateMutability": "view",
      "type": "function"
    }
  ],
  "bytecode": "0x6080604052348015600f57600080fd5b50610bfc8061001f6000396000f3fe608060405234801561001057600080fd5b50600436106100625760003560e01c80633d9ffad51461006757806350d9d3531461009757806397aba7f9146100b3578063a7bb5803146100e3578063b446f3b214610115578063fa54080114610145575b600080fd5b610081600480360381019061007c919061061d565b610175565b60405161008e91906106b0565b60405180910390f35b6100b160048036038101906100ac9190610729565b61021b565b005b6100cd60048036038101906100c891906107bb565b6102eb565b6040516100da9190610826565b60405180910390f35b6100fd60048036038101906100f89190610841565b61035a565b60405161010c939291906108b5565b60405180910390f35b61012f600480360381019061012a91906108ec565b6103c2565b60405161013c9190610935565b60405180910390f35b61015f600480360381019061015a9190610950565b6103f2565b60405161016c9190610935565b60405180910390f35b600080610181846103c2565b9050600061018e826103f2565b9050600061019c82866102eb565b9050600080876040516101af91906109ee565b908152602001604051809103902060009054906101000a900473ffffffffffffffffffffffffffffffffffffffff1690508173ffffffffffffffffffffffffffffffffffffffff168173ffffffffffffffffffffffffffffffffffffffff161494505050505092915050565b600073ffffffffffffffffffffffffffffffffffffffff168173ffffffffffffffffffffffffffffffffffffffff160361028a576040517f08c379a000000000000000000000000000000000000000000000000000000000815260040161028190610a62565b60405180910390fd5b8060008360405161029b91906109ee565b908152602001604051809103902060006101000a81548173ffffffffffffffffffffffffffffffffffffffff021916908373ffffffffffffffffffffffffffffffffffffffff1602179055505050565b6000806000806102fa8561035a565b925092509250600186828585604051600081526020016040526040516103239493929190610a82565b6020604051602081039080840390855afa158015610345573d6000803e3d6000fd5b50505060206040510351935050505092915050565b600080600060418451146103a3576040517f08c379a000000000000000000000000000000000000000000000000000000000815260040161039a90610b13565b60405180910390fd5b6020840151925060408401519150606084015160001a90509193909250565b6000816040516020016103d591906109ee565b604051602081830303815290604052805190602001209050919050565b6000816040516020016104059190610ba0565b604051602081830303815290604052805190602001209050919050565b6000604051905090565b600080fd5b600080fd5b600080fd5b600080fd5b6000601f19601f8301169050919050565b7f4e487b7100000000000000000000000000000000000000000000000000000000600052604160045260246000fd5b61048982610440565b810181811067ffffffffffffffff821117156104a8576104a7610451565b5b80604052505050565b60006104bb610422565b90506104c78282610480565b919050565b600067ffffffffffffffff8211156104e7576104e6610451565b5b6104f082610440565b9050602081019050919050565b82818337600083830152505050565b600061051f61051a846104cc565b6104b1565b90508281526020810184848401111561053b5761053a61043b565b5b6105468482856104fd565b509392505050565b600082601f83011261056357610562610436565b5b813561057384826020860161050c565b91505092915050565b600067ffffffffffffffff82111561059757610596610451565b5b6105a082610440565b9050602081019050919050565b60006105c06105bb8461057c565b6104b1565b9050828152602081018484840111156105dc576105db61043b565b5b6105e78482856104fd565b509392505050565b600082601f83011261060457610603610436565b5b81356106148482602086016105ad565b91505092915050565b600080604083850312156106345761063361042c565b5b600083013567ffffffffffffffff81111561065257610651610431565b5b61065e8582860161054e565b925050602083013567ffffffffffffffff81111561067f5761067e610431565b5b61068b858286016105ef565b9150509250929050565b60008115159050919050565b6106aa81610695565b82525050565b60006020820190506106c560008301846106a1565b92915050565b600073ffffffffffffffffffffffffffffffffffffffff82169050919050565b60006106f6826106cb565b9050919050565b610706816106eb565b811461071157600080fd5b50565b600081359050610723816106fd565b92915050565b600080604083850312156107405761073f61042c565b5b600083013567ffffffffffffffff81111561075e5761075d610431565b5b61076a8582860161054e565b925050602061077b85828601610714565b9150509250929050565b6000819050919050565b61079881610785565b81146107a357600080fd5b50565b6000813590506107b58161078f565b92915050565b600080604083850312156107d2576107d161042c565b5b60006107e0858286016107a6565b925050602083013567ffffffffffffffff81111561080157610800610431565b5b61080d858286016105ef565b9150509250929050565b610820816106eb565b82525050565b600060208201905061083b6000830184610817565b92915050565b6000602082840312156108575761085661042c565b5b600082013567ffffffffffffffff81111561087557610874610431565b5b610881848285016105ef565b91505092915050565b61089381610785565b82525050565b600060ff82169050919050565b6108af81610899565b82525050565b60006060820190506108ca600083018661088a565b6108d7602083018561088a565b6108e460408301846108a6565b949350505050565b6000602082840312156109025761090161042c565b5b600082013567ffffffffffffffff8111156109205761091f610431565b5b61092c8482850161054e565b91505092915050565b600060208201905061094a600083018461088a565b92915050565b6000602082840312156109665761096561042c565b5b6000610974848285016107a6565b91505092915050565b600081519050919050565b600081905092915050565b60005b838110156109b1578082015181840152602081019050610996565b60008484015250505050565b60006109c88261097d565b6109d28185610988565b93506109e2818560208601610993565b80840191505092915050565b60006109fa82846109bd565b915081905092915050565b600082825260208201905092915050565b7f496e76616c6964207075626c6963206b65792061646472657373000000000000600082015250565b6000610a4c601a83610a05565b9150610a5782610a16565b602082019050919050565b60006020820190508181036000830152610a7b81610a3f565b9050919050565b6000608082019050610a97600083018761088a565b610aa460208301866108a6565b610ab1604083018561088a565b610abe606083018461088a565b95945050505050565b7f496e76616c6964207369676e6174757265206c656e6774680000000000000000600082015250565b6000610afd601883610a05565b9150610b0882610ac7565b602082019050919050565b60006020820190508181036000830152610b2c81610af0565b9050919050565b7f19457468657265756d205369676e6564204d6573736167653a0a333200000000600082015250565b6000610b69601c83610988565b9150610b7482610b33565b601c82019050919050565b6000819050919050565b610b9a610b9582610785565b610b7f565b82525050565b6000610bab82610b5c565b9150610bb78284610b89565b6020820191508190509291505056fea264697066735822122085cc806cd971311a89c247e0b75d397352833ad39b395dcdee3130341028cc1064736f6c634300081c0033",
  "linkReferences": {},
  "deployedLinkReferences": {}
}