{"contracts/VerifySignature.sol":{"VerifySignature":{"abi":[{"inputs":[],"stateMutability":"nonpayable","type":"constructor"},{"inputs":[{"internalType":"bytes32","name":"_messageHash","type":"bytes32"}],"name":"getEthSignedMessageHash","outputs":[{"internalType":"bytes32","name":"","type":"bytes32"}],"stateMutability":"pure","type":"function"},{"inputs":[{"internalType":"string","name":"_message","type":"string"}],"name":"getMessageHash","outputs":[{"internalType":"bytes32","name":"","type":"bytes32"}],"stateMutability":"pure","type":"function"},{"inputs":[{"internalType":"string","name":"meetingId","type":"string"},{"internalType":"address","name":"creator","type":"address"},{"internalType":"address[]","name":"selectedParticipants","type":"address[]"}],"name":"mapParticipantsToMeeting","outputs":[],"stateMutability":"nonpayable","type":"function"},{"inputs":[{"internalType":"bytes32","name":"_ethSignedMessageHash","type":"bytes32"},{"internalType":"bytes","name":"_signature","type":"bytes"}],"name":"recoverSigner","outputs":[{"internalType":"address","name":"","type":"address"}],"stateMutability":"pure","type":"function"},{"inputs":[{"internalType":"bytes","name":"sig","type":"bytes"}],"name":"splitSignature","outputs":[{"internalType":"bytes32","name":"r","type":"bytes32"},{"internalType":"bytes32","name":"s","type":"bytes32"},{"internalType":"uint8","name":"v","type":"uint8"}],"stateMutability":"pure","type":"function"},{"inputs":[{"internalType":"string","name":"meetingId","type":"string"},{"internalType":"bytes","name":"signature","type":"bytes"}],"name":"verifyUserAccess","outputs":[{"internalType":"bool","name":"","type":"bool"}],"stateMutability":"view","type":"function"}],"evm":{"bytecode":{"linkReferences":{},"object":"6080604052348015600f57600080fd5b50336000806101000a81548173ffffffffffffffffffffffffffffffffffffffff021916908373ffffffffffffffffffffffffffffffffffffffff160217905550610ebf8061005f6000396000f3fe608060405234801561001057600080fd5b50600436106100625760003560e01c8063309c1ebb1461006757806397aba7f914610083578063a7bb5803146100b3578063ace5e875146100e5578063b446f3b214610115578063fa54080114610145575b600080fd5b610081600480360381019061007c919061073d565b610175565b005b61009d6004803603810190610098919061089f565b610303565b6040516100aa919061090a565b60405180910390f35b6100cd60048036038101906100c89190610925565b610372565b6040516100dc93929190610999565b60405180910390f35b6100ff60048036038101906100fa91906109d0565b6103da565b60405161010c9190610a63565b60405180910390f35b61012f600480360381019061012a9190610a7e565b61045d565b60405161013c9190610ac7565b60405180910390f35b61015f600480360381019061015a9190610ae2565b61048d565b60405161016c9190610ac7565b60405180910390f35b60008054906101000a900473ffffffffffffffffffffffffffffffffffffffff1673ffffffffffffffffffffffffffffffffffffffff163373ffffffffffffffffffffffffffffffffffffffff1614610203576040517f08c379a00000000000000000000000000000000000000000000000000000000081526004016101fa90610b6c565b60405180910390fd5b8173ffffffffffffffffffffffffffffffffffffffff163373ffffffffffffffffffffffffffffffffffffffff1614610271576040517f08c379a000000000000000000000000000000000000000000000000000000000815260040161026890610bfe565b60405180910390fd5b60005b81518110156102fd5760008483838151811061029357610292610c1e565b5b60200260200101516040516020016102ac929190610d06565b604051602081830303815290604052805190602001209050600180600083815260200190815260200160002060006101000a81548160ff021916908315150217905550508080600101915050610274565b50505050565b60008060008061031285610372565b9250925092506001868285856040516000815260200160405260405161033b9493929190610d2e565b6020604051602081039080840390855afa15801561035d573d6000803e3d6000fd5b50505060206040510351935050505092915050565b600080600060418451146103bb576040517f08c379a00000000000000000000000000000000000000000000000000000000081526004016103b290610dbf565b60405180910390fd5b6020840151925060408401519150606084015160001a90509193909250565b6000806103e68461045d565b905060006103f38261048d565b905060006104018286610303565b905060008682604051602001610418929190610d06565b6040516020818303038152906040528051906020012090506001600082815260200190815260200160002060009054906101000a900460ff1694505050505092915050565b6000816040516020016104709190610ddf565b604051602081830303815290604052805190602001209050919050565b6000816040516020016104a09190610e63565b604051602081830303815290604052805190602001209050919050565b6000604051905090565b600080fd5b600080fd5b600080fd5b600080fd5b6000601f19601f8301169050919050565b7f4e487b7100000000000000000000000000000000000000000000000000000000600052604160045260246000fd5b610524826104db565b810181811067ffffffffffffffff82111715610543576105426104ec565b5b80604052505050565b60006105566104bd565b9050610562828261051b565b919050565b600067ffffffffffffffff821115610582576105816104ec565b5b61058b826104db565b9050602081019050919050565b82818337600083830152505050565b60006105ba6105b584610567565b61054c565b9050828152602081018484840111156105d6576105d56104d6565b5b6105e1848285610598565b509392505050565b600082601f8301126105fe576105fd6104d1565b5b813561060e8482602086016105a7565b91505092915050565b600073ffffffffffffffffffffffffffffffffffffffff82169050919050565b600061064282610617565b9050919050565b61065281610637565b811461065d57600080fd5b50565b60008135905061066f81610649565b92915050565b600067ffffffffffffffff8211156106905761068f6104ec565b5b602082029050602081019050919050565b600080fd5b60006106b96106b484610675565b61054c565b905080838252602082019050602084028301858111156106dc576106db6106a1565b5b835b8181101561070557806106f18882610660565b8452602084019350506020810190506106de565b5050509392505050565b600082601f830112610724576107236104d1565b5b81356107348482602086016106a6565b91505092915050565b600080600060608486031215610756576107556104c7565b5b600084013567ffffffffffffffff811115610774576107736104cc565b5b610780868287016105e9565b935050602061079186828701610660565b925050604084013567ffffffffffffffff8111156107b2576107b16104cc565b5b6107be8682870161070f565b9150509250925092565b6000819050919050565b6107db816107c8565b81146107e657600080fd5b50565b6000813590506107f8816107d2565b92915050565b600067ffffffffffffffff821115610819576108186104ec565b5b610822826104db565b9050602081019050919050565b600061084261083d846107fe565b61054c565b90508281526020810184848401111561085e5761085d6104d6565b5b610869848285610598565b509392505050565b600082601f830112610886576108856104d1565b5b813561089684826020860161082f565b91505092915050565b600080604083850312156108b6576108b56104c7565b5b60006108c4858286016107e9565b925050602083013567ffffffffffffffff8111156108e5576108e46104cc565b5b6108f185828601610871565b9150509250929050565b61090481610637565b82525050565b600060208201905061091f60008301846108fb565b92915050565b60006020828403121561093b5761093a6104c7565b5b600082013567ffffffffffffffff811115610959576109586104cc565b5b61096584828501610871565b91505092915050565b610977816107c8565b82525050565b600060ff82169050919050565b6109938161097d565b82525050565b60006060820190506109ae600083018661096e565b6109bb602083018561096e565b6109c8604083018461098a565b949350505050565b600080604083850312156109e7576109e66104c7565b5b600083013567ffffffffffffffff811115610a0557610a046104cc565b5b610a11858286016105e9565b925050602083013567ffffffffffffffff811115610a3257610a316104cc565b5b610a3e85828601610871565b9150509250929050565b60008115159050919050565b610a5d81610a48565b82525050565b6000602082019050610a786000830184610a54565b92915050565b600060208284031215610a9457610a936104c7565b5b600082013567ffffffffffffffff811115610ab257610ab16104cc565b5b610abe848285016105e9565b91505092915050565b6000602082019050610adc600083018461096e565b92915050565b600060208284031215610af857610af76104c7565b5b6000610b06848285016107e9565b91505092915050565b600082825260208201905092915050565b7f4f6e6c79206f776e65722063616e206d6170207061727469636970616e747300600082015250565b6000610b56601f83610b0f565b9150610b6182610b20565b602082019050919050565b60006020820190508181036000830152610b8581610b49565b9050919050565b7f4f6e6c792063726561746f722063616e206d6170207061727469636970616e7460008201527f7300000000000000000000000000000000000000000000000000000000000000602082015250565b6000610be8602183610b0f565b9150610bf382610b8c565b604082019050919050565b60006020820190508181036000830152610c1781610bdb565b9050919050565b7f4e487b7100000000000000000000000000000000000000000000000000000000600052603260045260246000fd5b600081519050919050565b600081905092915050565b60005b83811015610c81578082015181840152602081019050610c66565b60008484015250505050565b6000610c9882610c4d565b610ca28185610c58565b9350610cb2818560208601610c63565b80840191505092915050565b60008160601b9050919050565b6000610cd682610cbe565b9050919050565b6000610ce882610ccb565b9050919050565b610d00610cfb82610637565b610cdd565b82525050565b6000610d128285610c8d565b9150610d1e8284610cef565b6014820191508190509392505050565b6000608082019050610d43600083018761096e565b610d50602083018661098a565b610d5d604083018561096e565b610d6a606083018461096e565b95945050505050565b7f496e76616c6964207369676e6174757265206c656e6774680000000000000000600082015250565b6000610da9601883610b0f565b9150610db482610d73565b602082019050919050565b60006020820190508181036000830152610dd881610d9c565b9050919050565b6000610deb8284610c8d565b915081905092915050565b7f19457468657265756d205369676e6564204d6573736167653a0a333200000000600082015250565b6000610e2c601c83610c58565b9150610e3782610df6565b601c82019050919050565b6000819050919050565b610e5d610e58826107c8565b610e42565b82525050565b6000610e6e82610e1f565b9150610e7a8284610e4c565b6020820191508190509291505056fea2646970667358221220af3064362f10f74ddbe158fd11645fe546920f4d5e557930e558f55e1d9c527664736f6c634300081c0033","opcodes":"PUSH1 0x80 PUSH1 0x40 MSTORE CALLVALUE DUP1 ISZERO PUSH1 0xF JUMPI PUSH1 0x0 DUP1 REVERT JUMPDEST POP CALLER PUSH1 0x0 DUP1 PUSH2 0x100 EXP DUP2 SLOAD DUP2 PUSH20 0xFFFFFFFFFFFFFFFFFFFFFFFFFFFFFFFFFFFFFFFF MUL NOT AND SWAP1 DUP4 PUSH20 0xFFFFFFFFFFFFFFFFFFFFFFFFFFFFFFFFFFFFFFFF AND MUL OR SWAP1 SSTORE POP PUSH2 0xEBF DUP1 PUSH2 0x5F PUSH1 0x0 CODECOPY PUSH1 0x0 RETURN INVALID PUSH1 0x80 PUSH1 0x40 MSTORE CALLVALUE DUP1 ISZERO PUSH2 0x10 JUMPI PUSH1 0x0 DUP1 REVERT JUMPDEST POP PUSH1 0x4 CALLDATASIZE LT PUSH2 0x62 JUMPI PUSH1 0x0 CALLDATALOAD PUSH1 0xE0 SHR DUP1 PUSH4 0x309C1EBB EQ PUSH2 0x67 JUMPI DUP1 PUSH4 0x97ABA7F9 EQ PUSH2 0x83 JUMPI DUP1 PUSH4 0xA7BB5803 EQ PUSH2 0xB3 JUMPI DUP1 PUSH4 0xACE5E875 EQ PUSH2 0xE5 JUMPI DUP1 PUSH4 0xB446F3B2 EQ PUSH2 0x115 JUMPI DUP1 PUSH4 0xFA540801 EQ PUSH2 0x145 JUMPI JUMPDEST PUSH1 0x0 DUP1 REVERT JUMPDEST PUSH2 0x81 PUSH1 0x4 DUP1 CALLDATASIZE SUB DUP2 ADD SWAP1 PUSH2 0x7C SWAP2 SWAP1 PUSH2 0x73D JUMP JUMPDEST PUSH2 0x175 JUMP JUMPDEST STOP JUMPDEST PUSH2 0x9D PUSH1 0x4 DUP1 CALLDATASIZE SUB DUP2 ADD SWAP1 PUSH2 0x98 SWAP2 SWAP1 PUSH2 0x89F JUMP JUMPDEST PUSH2 0x303 JUMP JUMPDEST PUSH1 0x40 MLOAD PUSH2 0xAA SWAP2 SWAP1 PUSH2 0x90A JUMP JUMPDEST PUSH1 0x40 MLOAD DUP1 SWAP2 SUB SWAP1 RETURN JUMPDEST PUSH2 0xCD PUSH1 0x4 DUP1 CALLDATASIZE SUB DUP2 ADD SWAP1 PUSH2 0xC8 SWAP2 SWAP1 PUSH2 0x925 JUMP JUMPDEST PUSH2 0x372 JUMP JUMPDEST PUSH1 0x40 MLOAD PUSH2 0xDC SWAP4 SWAP3 SWAP2 SWAP1 PUSH2 0x999 JUMP JUMPDEST PUSH1 0x40 MLOAD DUP1 SWAP2 SUB SWAP1 RETURN JUMPDEST PUSH2 0xFF PUSH1 0x4 DUP1 CALLDATASIZE SUB DUP2 ADD SWAP1 PUSH2 0xFA SWAP2 SWAP1 PUSH2 0x9D0 JUMP JUMPDEST PUSH2 0x3DA JUMP JUMPDEST PUSH1 0x40 MLOAD PUSH2 0x10C SWAP2 SWAP1 PUSH2 0xA63 JUMP JUMPDEST PUSH1 0x40 MLOAD DUP1 SWAP2 SUB SWAP1 RETURN JUMPDEST PUSH2 0x12F PUSH1 0x4 DUP1 CALLDATASIZE SUB DUP2 ADD SWAP1 PUSH2 0x12A SWAP2 SWAP1 PUSH2 0xA7E JUMP JUMPDEST PUSH2 0x45D JUMP JUMPDEST PUSH1 0x40 MLOAD PUSH2 0x13C SWAP2 SWAP1 PUSH2 0xAC7 JUMP JUMPDEST PUSH1 0x40 MLOAD DUP1 SWAP2 SUB SWAP1 RETURN JUMPDEST PUSH2 0x15F PUSH1 0x4 DUP1 CALLDATASIZE SUB DUP2 ADD SWAP1 PUSH2 0x15A SWAP2 SWAP1 PUSH2 0xAE2 JUMP JUMPDEST PUSH2 0x48D JUMP JUMPDEST PUSH1 0x40 MLOAD PUSH2 0x16C SWAP2 SWAP1 PUSH2 0xAC7 JUMP JUMPDEST PUSH1 0x40 MLOAD DUP1 SWAP2 SUB SWAP1 RETURN JUMPDEST PUSH1 0x0 DUP1 SLOAD SWAP1 PUSH2 0x100 EXP SWAP1 DIV PUSH20 0xFFFFFFFFFFFFFFFFFFFFFFFFFFFFFFFFFFFFFFFF AND PUSH20 0xFFFFFFFFFFFFFFFFFFFFFFFFFFFFFFFFFFFFFFFF AND CALLER PUSH20 0xFFFFFFFFFFFFFFFFFFFFFFFFFFFFFFFFFFFFFFFF AND EQ PUSH2 0x203 JUMPI PUSH1 0x40 MLOAD PUSH32 0x8C379A000000000000000000000000000000000000000000000000000000000 DUP2 MSTORE PUSH1 0x4 ADD PUSH2 0x1FA SWAP1 PUSH2 0xB6C JUMP JUMPDEST PUSH1 0x40 MLOAD DUP1 SWAP2 SUB SWAP1 REVERT JUMPDEST DUP2 PUSH20 0xFFFFFFFFFFFFFFFFFFFFFFFFFFFFFFFFFFFFFFFF AND CALLER PUSH20 0xFFFFFFFFFFFFFFFFFFFFFFFFFFFFFFFFFFFFFFFF AND EQ PUSH2 0x271 JUMPI PUSH1 0x40 MLOAD PUSH32 0x8C379A000000000000000000000000000000000000000000000000000000000 DUP2 MSTORE PUSH1 0x4 ADD PUSH2 0x268 SWAP1 PUSH2 0xBFE JUMP JUMPDEST PUSH1 0x40 MLOAD DUP1 SWAP2 SUB SWAP1 REVERT JUMPDEST PUSH1 0x0 JUMPDEST DUP2 MLOAD DUP2 LT ISZERO PUSH2 0x2FD JUMPI PUSH1 0x0 DUP5 DUP4 DUP4 DUP2 MLOAD DUP2 LT PUSH2 0x293 JUMPI PUSH2 0x292 PUSH2 0xC1E JUMP JUMPDEST JUMPDEST PUSH1 0x20 MUL PUSH1 0x20 ADD ADD MLOAD PUSH1 0x40 MLOAD PUSH1 0x20 ADD PUSH2 0x2AC SWAP3 SWAP2 SWAP1 PUSH2 0xD06 JUMP JUMPDEST PUSH1 0x40 MLOAD PUSH1 0x20 DUP2 DUP4 SUB SUB DUP2 MSTORE SWAP1 PUSH1 0x40 MSTORE DUP1 MLOAD SWAP1 PUSH1 0x20 ADD KECCAK256 SWAP1 POP PUSH1 0x1 DUP1 PUSH1 0x0 DUP4 DUP2 MSTORE PUSH1 0x20 ADD SWAP1 DUP2 MSTORE PUSH1 0x20 ADD PUSH1 0x0 KECCAK256 PUSH1 0x0 PUSH2 0x100 EXP DUP2 SLOAD DUP2 PUSH1 0xFF MUL NOT AND SWAP1 DUP4 ISZERO ISZERO MUL OR SWAP1 SSTORE POP POP DUP1 DUP1 PUSH1 0x1 ADD SWAP2 POP POP PUSH2 0x274 JUMP JUMPDEST POP POP POP POP JUMP JUMPDEST PUSH1 0x0 DUP1 PUSH1 0x0 DUP1 PUSH2 0x312 DUP6 PUSH2 0x372 JUMP JUMPDEST SWAP3 POP SWAP3 POP SWAP3 POP PUSH1 0x1 DUP7 DUP3 DUP6 DUP6 PUSH1 0x40 MLOAD PUSH1 0x0 DUP2 MSTORE PUSH1 0x20 ADD PUSH1 0x40 MSTORE PUSH1 0x40 MLOAD PUSH2 0x33B SWAP5 SWAP4 SWAP3 SWAP2 SWAP1 PUSH2 0xD2E JUMP JUMPDEST PUSH1 0x20 PUSH1 0x40 MLOAD PUSH1 0x20 DUP2 SUB SWAP1 DUP1 DUP5 SUB SWAP1 DUP6 GAS STATICCALL ISZERO DUP1 ISZERO PUSH2 0x35D JUMPI RETURNDATASIZE PUSH1 0x0 DUP1 RETURNDATACOPY RETURNDATASIZE PUSH1 0x0 REVERT JUMPDEST POP POP POP PUSH1 0x20 PUSH1 0x40 MLOAD SUB MLOAD SWAP4 POP POP POP POP SWAP3 SWAP2 POP POP JUMP JUMPDEST PUSH1 0x0 DUP1 PUSH1 0x0 PUSH1 0x41 DUP5 MLOAD EQ PUSH2 0x3BB JUMPI PUSH1 0x40 MLOAD PUSH32 0x8C379A000000000000000000000000000000000000000000000000000000000 DUP2 MSTORE PUSH1 0x4 ADD PUSH2 0x3B2 SWAP1 PUSH2 0xDBF JUMP JUMPDEST PUSH1 0x40 MLOAD DUP1 SWAP2 SUB SWAP1 REVERT JUMPDEST PUSH1 0x20 DUP5 ADD MLOAD SWAP3 POP PUSH1 0x40 DUP5 ADD MLOAD SWAP2 POP PUSH1 0x60 DUP5 ADD MLOAD PUSH1 0x0 BYTE SWAP1 POP SWAP2 SWAP4 SWAP1 SWAP3 POP JUMP JUMPDEST PUSH1 0x0 DUP1 PUSH2 0x3E6 DUP5 PUSH2 0x45D JUMP JUMPDEST SWAP1 POP PUSH1 0x0 PUSH2 0x3F3 DUP3 PUSH2 0x48D JUMP JUMPDEST SWAP1 POP PUSH1 0x0 PUSH2 0x401 DUP3 DUP7 PUSH2 0x303 JUMP JUMPDEST SWAP1 POP PUSH1 0x0 DUP7 DUP3 PUSH1 0x40 MLOAD PUSH1 0x20 ADD PUSH2 0x418 SWAP3 SWAP2 SWAP1 PUSH2 0xD06 JUMP JUMPDEST PUSH1 0x40 MLOAD PUSH1 0x20 DUP2 DUP4 SUB SUB DUP2 MSTORE SWAP1 PUSH1 0x40 MSTORE DUP1 MLOAD SWAP1 PUSH1 0x20 ADD KECCAK256 SWAP1 POP PUSH1 0x1 PUSH1 0x0 DUP3 DUP2 MSTORE PUSH1 0x20 ADD SWAP1 DUP2 MSTORE PUSH1 0x20 ADD PUSH1 0x0 KECCAK256 PUSH1 0x0 SWAP1 SLOAD SWAP1 PUSH2 0x100 EXP SWAP1 DIV PUSH1 0xFF AND SWAP5 POP POP POP POP POP SWAP3 SWAP2 POP POP JUMP JUMPDEST PUSH1 0x0 DUP2 PUSH1 0x40 MLOAD PUSH1 0x20 ADD PUSH2 0x470 SWAP2 SWAP1 PUSH2 0xDDF JUMP JUMPDEST PUSH1 0x40 MLOAD PUSH1 0x20 DUP2 DUP4 SUB SUB DUP2 MSTORE SWAP1 PUSH1 0x40 MSTORE DUP1 MLOAD SWAP1 PUSH1 0x20 ADD KECCAK256 SWAP1 POP SWAP2 SWAP1 POP JUMP JUMPDEST PUSH1 0x0 DUP2 PUSH1 0x40 MLOAD PUSH1 0x20 ADD PUSH2 0x4A0 SWAP2 SWAP1 PUSH2 0xE63 JUMP JUMPDEST PUSH1 0x40 MLOAD PUSH1 0x20 DUP2 DUP4 SUB SUB DUP2 MSTORE SWAP1 PUSH1 0x40 MSTORE DUP1 MLOAD SWAP1 PUSH1 0x20 ADD KECCAK256 SWAP1 POP SWAP2 SWAP1 POP JUMP JUMPDEST PUSH1 0x0 PUSH1 0x40 MLOAD SWAP1 POP SWAP1 JUMP JUMPDEST PUSH1 0x0 DUP1 REVERT JUMPDEST PUSH1 0x0 DUP1 REVERT JUMPDEST PUSH1 0x0 DUP1 REVERT JUMPDEST PUSH1 0x0 DUP1 REVERT JUMPDEST PUSH1 0x0 PUSH1 0x1F NOT PUSH1 0x1F DUP4 ADD AND SWAP1 POP SWAP2 SWAP1 POP JUMP JUMPDEST PUSH32 0x4E487B7100000000000000000000000000000000000000000000000000000000 PUSH1 0x0 MSTORE PUSH1 0x41 PUSH1 0x4 MSTORE PUSH1 0x24 PUSH1 0x0 REVERT JUMPDEST PUSH2 0x524 DUP3 PUSH2 0x4DB JUMP JUMPDEST DUP2 ADD DUP2 DUP2 LT PUSH8 0xFFFFFFFFFFFFFFFF DUP3 GT OR ISZERO PUSH2 0x543 JUMPI PUSH2 0x542 PUSH2 0x4EC JUMP JUMPDEST JUMPDEST DUP1 PUSH1 0x40 MSTORE POP POP POP JUMP JUMPDEST PUSH1 0x0 PUSH2 0x556 PUSH2 0x4BD JUMP JUMPDEST SWAP1 POP PUSH2 0x562 DUP3 DUP3 PUSH2 0x51B JUMP JUMPDEST SWAP2 SWAP1 POP JUMP JUMPDEST PUSH1 0x0 PUSH8 0xFFFFFFFFFFFFFFFF DUP3 GT ISZERO PUSH2 0x582 JUMPI PUSH2 0x581 PUSH2 0x4EC JUMP JUMPDEST JUMPDEST PUSH2 0x58B DUP3 PUSH2 0x4DB JUMP JUMPDEST SWAP1 POP PUSH1 0x20 DUP2 ADD SWAP1 POP SWAP2 SWAP1 POP JUMP JUMPDEST DUP3 DUP2 DUP4 CALLDATACOPY PUSH1 0x0 DUP4 DUP4 ADD MSTORE POP POP POP JUMP JUMPDEST PUSH1 0x0 PUSH2 0x5BA PUSH2 0x5B5 DUP5 PUSH2 0x567 JUMP JUMPDEST PUSH2 0x54C JUMP JUMPDEST SWAP1 POP DUP3 DUP2 MSTORE PUSH1 0x20 DUP2 ADD DUP5 DUP5 DUP5 ADD GT ISZERO PUSH2 0x5D6 JUMPI PUSH2 0x5D5 PUSH2 0x4D6 JUMP JUMPDEST JUMPDEST PUSH2 0x5E1 DUP5 DUP3 DUP6 PUSH2 0x598 JUMP JUMPDEST POP SWAP4 SWAP3 POP POP POP JUMP JUMPDEST PUSH1 0x0 DUP3 PUSH1 0x1F DUP4 ADD SLT PUSH2 0x5FE JUMPI PUSH2 0x5FD PUSH2 0x4D1 JUMP JUMPDEST JUMPDEST DUP2 CALLDATALOAD PUSH2 0x60E DUP5 DUP3 PUSH1 0x20 DUP7 ADD PUSH2 0x5A7 JUMP JUMPDEST SWAP2 POP POP SWAP3 SWAP2 POP POP JUMP JUMPDEST PUSH1 0x0 PUSH20 0xFFFFFFFFFFFFFFFFFFFFFFFFFFFFFFFFFFFFFFFF DUP3 AND SWAP1 POP SWAP2 SWAP1 POP JUMP JUMPDEST PUSH1 0x0 PUSH2 0x642 DUP3 PUSH2 0x617 JUMP JUMPDEST SWAP1 POP SWAP2 SWAP1 POP JUMP JUMPDEST PUSH2 0x652 DUP2 PUSH2 0x637 JUMP JUMPDEST DUP2 EQ PUSH2 0x65D JUMPI PUSH1 0x0 DUP1 REVERT JUMPDEST POP JUMP JUMPDEST PUSH1 0x0 DUP2 CALLDATALOAD SWAP1 POP PUSH2 0x66F DUP2 PUSH2 0x649 JUMP JUMPDEST SWAP3 SWAP2 POP POP JUMP JUMPDEST PUSH1 0x0 PUSH8 0xFFFFFFFFFFFFFFFF DUP3 GT ISZERO PUSH2 0x690 JUMPI PUSH2 0x68F PUSH2 0x4EC JUMP JUMPDEST JUMPDEST PUSH1 0x20 DUP3 MUL SWAP1 POP PUSH1 0x20 DUP2 ADD SWAP1 POP SWAP2 SWAP1 POP JUMP JUMPDEST PUSH1 0x0 DUP1 REVERT JUMPDEST PUSH1 0x0 PUSH2 0x6B9 PUSH2 0x6B4 DUP5 PUSH2 0x675 JUMP JUMPDEST PUSH2 0x54C JUMP JUMPDEST SWAP1 POP DUP1 DUP4 DUP3 MSTORE PUSH1 0x20 DUP3 ADD SWAP1 POP PUSH1 0x20 DUP5 MUL DUP4 ADD DUP6 DUP2 GT ISZERO PUSH2 0x6DC JUMPI PUSH2 0x6DB PUSH2 0x6A1 JUMP JUMPDEST JUMPDEST DUP4 JUMPDEST DUP2 DUP2 LT ISZERO PUSH2 0x705 JUMPI DUP1 PUSH2 0x6F1 DUP9 DUP3 PUSH2 0x660 JUMP JUMPDEST DUP5 MSTORE PUSH1 0x20 DUP5 ADD SWAP4 POP POP PUSH1 0x20 DUP2 ADD SWAP1 POP PUSH2 0x6DE JUMP JUMPDEST POP POP POP SWAP4 SWAP3 POP POP POP JUMP JUMPDEST PUSH1 0x0 DUP3 PUSH1 0x1F DUP4 ADD SLT PUSH2 0x724 JUMPI PUSH2 0x723 PUSH2 0x4D1 JUMP JUMPDEST JUMPDEST DUP2 CALLDATALOAD PUSH2 0x734 DUP5 DUP3 PUSH1 0x20 DUP7 ADD PUSH2 0x6A6 JUMP JUMPDEST SWAP2 POP POP SWAP3 SWAP2 POP POP JUMP JUMPDEST PUSH1 0x0 DUP1 PUSH1 0x0 PUSH1 0x60 DUP5 DUP7 SUB SLT ISZERO PUSH2 0x756 JUMPI PUSH2 0x755 PUSH2 0x4C7 JUMP JUMPDEST JUMPDEST PUSH1 0x0 DUP5 ADD CALLDATALOAD PUSH8 0xFFFFFFFFFFFFFFFF DUP2 GT ISZERO PUSH2 0x774 JUMPI PUSH2 0x773 PUSH2 0x4CC JUMP JUMPDEST JUMPDEST PUSH2 0x780 DUP7 DUP3 DUP8 ADD PUSH2 0x5E9 JUMP JUMPDEST SWAP4 POP POP PUSH1 0x20 PUSH2 0x791 DUP7 DUP3 DUP8 ADD PUSH2 0x660 JUMP JUMPDEST SWAP3 POP POP PUSH1 0x40 DUP5 ADD CALLDATALOAD PUSH8 0xFFFFFFFFFFFFFFFF DUP2 GT ISZERO PUSH2 0x7B2 JUMPI PUSH2 0x7B1 PUSH2 0x4CC JUMP JUMPDEST JUMPDEST PUSH2 0x7BE DUP7 DUP3 DUP8 ADD PUSH2 0x70F JUMP JUMPDEST SWAP2 POP POP SWAP3 POP SWAP3 POP SWAP3 JUMP JUMPDEST PUSH1 0x0 DUP2 SWAP1 POP SWAP2 SWAP1 POP JUMP JUMPDEST PUSH2 0x7DB DUP2 PUSH2 0x7C8 JUMP JUMPDEST DUP2 EQ PUSH2 0x7E6 JUMPI PUSH1 0x0 DUP1 REVERT JUMPDEST POP JUMP JUMPDEST PUSH1 0x0 DUP2 CALLDATALOAD SWAP1 POP PUSH2 0x7F8 DUP2 PUSH2 0x7D2 JUMP JUMPDEST SWAP3 SWAP2 POP POP JUMP JUMPDEST PUSH1 0x0 PUSH8 0xFFFFFFFFFFFFFFFF DUP3 GT ISZERO PUSH2 0x819 JUMPI PUSH2 0x818 PUSH2 0x4EC JUMP JUMPDEST JUMPDEST PUSH2 0x822 DUP3 PUSH2 0x4DB JUMP JUMPDEST SWAP1 POP PUSH1 0x20 DUP2 ADD SWAP1 POP SWAP2 SWAP1 POP JUMP JUMPDEST PUSH1 0x0 PUSH2 0x842 PUSH2 0x83D DUP5 PUSH2 0x7FE JUMP JUMPDEST PUSH2 0x54C JUMP JUMPDEST SWAP1 POP DUP3 DUP2 MSTORE PUSH1 0x20 DUP2 ADD DUP5 DUP5 DUP5 ADD GT ISZERO PUSH2 0x85E JUMPI PUSH2 0x85D PUSH2 0x4D6 JUMP JUMPDEST JUMPDEST PUSH2 0x869 DUP5 DUP3 DUP6 PUSH2 0x598 JUMP JUMPDEST POP SWAP4 SWAP3 POP POP POP JUMP JUMPDEST PUSH1 0x0 DUP3 PUSH1 0x1F DUP4 ADD SLT PUSH2 0x886 JUMPI PUSH2 0x885 PUSH2 0x4D1 JUMP JUMPDEST JUMPDEST DUP2 CALLDATALOAD PUSH2 0x896 DUP5 DUP3 PUSH1 0x20 DUP7 ADD PUSH2 0x82F JUMP JUMPDEST SWAP2 POP POP SWAP3 SWAP2 POP POP JUMP JUMPDEST PUSH1 0x0 DUP1 PUSH1 0x40 DUP4 DUP6 SUB SLT ISZERO PUSH2 0x8B6 JUMPI PUSH2 0x8B5 PUSH2 0x4C7 JUMP JUMPDEST JUMPDEST PUSH1 0x0 PUSH2 0x8C4 DUP6 DUP3 DUP7 ADD PUSH2 0x7E9 JUMP JUMPDEST SWAP3 POP POP PUSH1 0x20 DUP4 ADD CALLDATALOAD PUSH8 0xFFFFFFFFFFFFFFFF DUP2 GT ISZERO PUSH2 0x8E5 JUMPI PUSH2 0x8E4 PUSH2 0x4CC JUMP JUMPDEST JUMPDEST PUSH2 0x8F1 DUP6 DUP3 DUP7 ADD PUSH2 0x871 JUMP JUMPDEST SWAP2 POP POP SWAP3 POP SWAP3 SWAP1 POP JUMP JUMPDEST PUSH2 0x904 DUP2 PUSH2 0x637 JUMP JUMPDEST DUP3 MSTORE POP POP JUMP JUMPDEST PUSH1 0x0 PUSH1 0x20 DUP3 ADD SWAP1 POP PUSH2 0x91F PUSH1 0x0 DUP4 ADD DUP5 PUSH2 0x8FB JUMP JUMPDEST SWAP3 SWAP2 POP POP JUMP JUMPDEST PUSH1 0x0 PUSH1 0x20 DUP3 DUP5 SUB SLT ISZERO PUSH2 0x93B JUMPI PUSH2 0x93A PUSH2 0x4C7 JUMP JUMPDEST JUMPDEST PUSH1 0x0 DUP3 ADD CALLDATALOAD PUSH8 0xFFFFFFFFFFFFFFFF DUP2 GT ISZERO PUSH2 0x959 JUMPI PUSH2 0x958 PUSH2 0x4CC JUMP JUMPDEST JUMPDEST PUSH2 0x965 DUP5 DUP3 DUP6 ADD PUSH2 0x871 JUMP JUMPDEST SWAP2 POP POP SWAP3 SWAP2 POP POP JUMP JUMPDEST PUSH2 0x977 DUP2 PUSH2 0x7C8 JUMP JUMPDEST DUP3 MSTORE POP POP JUMP JUMPDEST PUSH1 0x0 PUSH1 0xFF DUP3 AND SWAP1 POP SWAP2 SWAP1 POP JUMP JUMPDEST PUSH2 0x993 DUP2 PUSH2 0x97D JUMP JUMPDEST DUP3 MSTORE POP POP JUMP JUMPDEST PUSH1 0x0 PUSH1 0x60 DUP3 ADD SWAP1 POP PUSH2 0x9AE PUSH1 0x0 DUP4 ADD DUP7 PUSH2 0x96E JUMP JUMPDEST PUSH2 0x9BB PUSH1 0x20 DUP4 ADD DUP6 PUSH2 0x96E JUMP JUMPDEST PUSH2 0x9C8 PUSH1 0x40 DUP4 ADD DUP5 PUSH2 0x98A JUMP JUMPDEST SWAP5 SWAP4 POP POP POP POP JUMP JUMPDEST PUSH1 0x0 DUP1 PUSH1 0x40 DUP4 DUP6 SUB SLT ISZERO PUSH2 0x9E7 JUMPI PUSH2 0x9E6 PUSH2 0x4C7 JUMP JUMPDEST JUMPDEST PUSH1 0x0 DUP4 ADD CALLDATALOAD PUSH8 0xFFFFFFFFFFFFFFFF DUP2 GT ISZERO PUSH2 0xA05 JUMPI PUSH2 0xA04 PUSH2 0x4CC JUMP JUMPDEST JUMPDEST PUSH2 0xA11 DUP6 DUP3 DUP7 ADD PUSH2 0x5E9 JUMP JUMPDEST SWAP3 POP POP PUSH1 0x20 DUP4 ADD CALLDATALOAD PUSH8 0xFFFFFFFFFFFFFFFF DUP2 GT ISZERO PUSH2 0xA32 JUMPI PUSH2 0xA31 PUSH2 0x4CC JUMP JUMPDEST JUMPDEST PUSH2 0xA3E DUP6 DUP3 DUP7 ADD PUSH2 0x871 JUMP JUMPDEST SWAP2 POP POP SWAP3 POP SWAP3 SWAP1 POP JUMP JUMPDEST PUSH1 0x0 DUP2 ISZERO ISZERO SWAP1 POP SWAP2 SWAP1 POP JUMP JUMPDEST PUSH2 0xA5D DUP2 PUSH2 0xA48 JUMP JUMPDEST DUP3 MSTORE POP POP JUMP JUMPDEST PUSH1 0x0 PUSH1 0x20 DUP3 ADD SWAP1 POP PUSH2 0xA78 PUSH1 0x0 DUP4 ADD DUP5 PUSH2 0xA54 JUMP JUMPDEST SWAP3 SWAP2 POP POP JUMP JUMPDEST PUSH1 0x0 PUSH1 0x20 DUP3 DUP5 SUB SLT ISZERO PUSH2 0xA94 JUMPI PUSH2 0xA93 PUSH2 0x4C7 JUMP JUMPDEST JUMPDEST PUSH1 0x0 DUP3 ADD CALLDATALOAD PUSH8 0xFFFFFFFFFFFFFFFF DUP2 GT ISZERO PUSH2 0xAB2 JUMPI PUSH2 0xAB1 PUSH2 0x4CC JUMP JUMPDEST JUMPDEST PUSH2 0xABE DUP5 DUP3 DUP6 ADD PUSH2 0x5E9 JUMP JUMPDEST SWAP2 POP POP SWAP3 SWAP2 POP POP JUMP JUMPDEST PUSH1 0x0 PUSH1 0x20 DUP3 ADD SWAP1 POP PUSH2 0xADC PUSH1 0x0 DUP4 ADD DUP5 PUSH2 0x96E JUMP JUMPDEST SWAP3 SWAP2 POP POP JUMP JUMPDEST PUSH1 0x0 PUSH1 0x20 DUP3 DUP5 SUB SLT ISZERO PUSH2 0xAF8 JUMPI PUSH2 0xAF7 PUSH2 0x4C7 JUMP JUMPDEST JUMPDEST PUSH1 0x0 PUSH2 0xB06 DUP5 DUP3 DUP6 ADD PUSH2 0x7E9 JUMP JUMPDEST SWAP2 POP POP SWAP3 SWAP2 POP POP JUMP JUMPDEST PUSH1 0x0 DUP3 DUP3 MSTORE PUSH1 0x20 DUP3 ADD SWAP1 POP SWAP3 SWAP2 POP POP JUMP JUMPDEST PUSH32 0x4F6E6C79206F776E65722063616E206D6170207061727469636970616E747300 PUSH1 0x0 DUP3 ADD MSTORE POP JUMP JUMPDEST PUSH1 0x0 PUSH2 0xB56 PUSH1 0x1F DUP4 PUSH2 0xB0F JUMP JUMPDEST SWAP2 POP PUSH2 0xB61 DUP3 PUSH2 0xB20 JUMP JUMPDEST PUSH1 0x20 DUP3 ADD SWAP1 POP SWAP2 SWAP1 POP JUMP JUMPDEST PUSH1 0x0 PUSH1 0x20 DUP3 ADD SWAP1 POP DUP2 DUP2 SUB PUSH1 0x0 DUP4 ADD MSTORE PUSH2 0xB85 DUP2 PUSH2 0xB49 JUMP JUMPDEST SWAP1 POP SWAP2 SWAP1 POP JUMP JUMPDEST PUSH32 0x4F6E6C792063726561746F722063616E206D6170207061727469636970616E74 PUSH1 0x0 DUP3 ADD MSTORE PUSH32 0x7300000000000000000000000000000000000000000000000000000000000000 PUSH1 0x20 DUP3 ADD MSTORE POP JUMP JUMPDEST PUSH1 0x0 PUSH2 0xBE8 PUSH1 0x21 DUP4 PUSH2 0xB0F JUMP JUMPDEST SWAP2 POP PUSH2 0xBF3 DUP3 PUSH2 0xB8C JUMP JUMPDEST PUSH1 0x40 DUP3 ADD SWAP1 POP SWAP2 SWAP1 POP JUMP JUMPDEST PUSH1 0x0 PUSH1 0x20 DUP3 ADD SWAP1 POP DUP2 DUP2 SUB PUSH1 0x0 DUP4 ADD MSTORE PUSH2 0xC17 DUP2 PUSH2 0xBDB JUMP JUMPDEST SWAP1 POP SWAP2 SWAP1 POP JUMP JUMPDEST PUSH32 0x4E487B7100000000000000000000000000000000000000000000000000000000 PUSH1 0x0 MSTORE PUSH1 0x32 PUSH1 0x4 MSTORE PUSH1 0x24 PUSH1 0x0 REVERT JUMPDEST PUSH1 0x0 DUP2 MLOAD SWAP1 POP SWAP2 SWAP1 POP JUMP JUMPDEST PUSH1 0x0 DUP2 SWAP1 POP SWAP3 SWAP2 POP POP JUMP JUMPDEST PUSH1 0x0 JUMPDEST DUP4 DUP2 LT ISZERO PUSH2 0xC81 JUMPI DUP1 DUP3 ADD MLOAD DUP2 DUP5 ADD MSTORE PUSH1 0x20 DUP2 ADD SWAP1 POP PUSH2 0xC66 JUMP JUMPDEST PUSH1 0x0 DUP5 DUP5 ADD MSTORE POP POP POP POP JUMP JUMPDEST PUSH1 0x0 PUSH2 0xC98 DUP3 PUSH2 0xC4D JUMP JUMPDEST PUSH2 0xCA2 DUP2 DUP6 PUSH2 0xC58 JUMP JUMPDEST SWAP4 POP PUSH2 0xCB2 DUP2 DUP6 PUSH1 0x20 DUP7 ADD PUSH2 0xC63 JUMP JUMPDEST DUP1 DUP5 ADD SWAP2 POP POP SWAP3 SWAP2 POP POP JUMP JUMPDEST PUSH1 0x0 DUP2 PUSH1 0x60 SHL SWAP1 POP SWAP2 SWAP1 POP JUMP JUMPDEST PUSH1 0x0 PUSH2 0xCD6 DUP3 PUSH2 0xCBE JUMP JUMPDEST SWAP1 POP SWAP2 SWAP1 POP JUMP JUMPDEST PUSH1 0x0 PUSH2 0xCE8 DUP3 PUSH2 0xCCB JUMP JUMPDEST SWAP1 POP SWAP2 SWAP1 POP JUMP JUMPDEST PUSH2 0xD00 PUSH2 0xCFB DUP3 PUSH2 0x637 JUMP JUMPDEST PUSH2 0xCDD JUMP JUMPDEST DUP3 MSTORE POP POP JUMP JUMPDEST PUSH1 0x0 PUSH2 0xD12 DUP3 DUP6 PUSH2 0xC8D JUMP JUMPDEST SWAP2 POP PUSH2 0xD1E DUP3 DUP5 PUSH2 0xCEF JUMP JUMPDEST PUSH1 0x14 DUP3 ADD SWAP2 POP DUP2 SWAP1 POP SWAP4 SWAP3 POP POP POP JUMP JUMPDEST PUSH1 0x0 PUSH1 0x80 DUP3 ADD SWAP1 POP PUSH2 0xD43 PUSH1 0x0 DUP4 ADD DUP8 PUSH2 0x96E JUMP JUMPDEST PUSH2 0xD50 PUSH1 0x20 DUP4 ADD DUP7 PUSH2 0x98A JUMP JUMPDEST PUSH2 0xD5D PUSH1 0x40 DUP4 ADD DUP6 PUSH2 0x96E JUMP JUMPDEST PUSH2 0xD6A PUSH1 0x60 DUP4 ADD DUP5 PUSH2 0x96E JUMP JUMPDEST SWAP6 SWAP5 POP POP POP POP POP JUMP JUMPDEST PUSH32 0x496E76616C6964207369676E6174757265206C656E6774680000000000000000 PUSH1 0x0 DUP3 ADD MSTORE POP JUMP JUMPDEST PUSH1 0x0 PUSH2 0xDA9 PUSH1 0x18 DUP4 PUSH2 0xB0F JUMP JUMPDEST SWAP2 POP PUSH2 0xDB4 DUP3 PUSH2 0xD73 JUMP JUMPDEST PUSH1 0x20 DUP3 ADD SWAP1 POP SWAP2 SWAP1 POP JUMP JUMPDEST PUSH1 0x0 PUSH1 0x20 DUP3 ADD SWAP1 POP DUP2 DUP2 SUB PUSH1 0x0 DUP4 ADD MSTORE PUSH2 0xDD8 DUP2 PUSH2 0xD9C JUMP JUMPDEST SWAP1 POP SWAP2 SWAP1 POP JUMP JUMPDEST PUSH1 0x0 PUSH2 0xDEB DUP3 DUP5 PUSH2 0xC8D JUMP JUMPDEST SWAP2 POP DUP2 SWAP1 POP SWAP3 SWAP2 POP POP JUMP JUMPDEST PUSH32 0x19457468657265756D205369676E6564204D6573736167653A0A333200000000 PUSH1 0x0 DUP3 ADD MSTORE POP JUMP JUMPDEST PUSH1 0x0 PUSH2 0xE2C PUSH1 0x1C DUP4 PUSH2 0xC58 JUMP JUMPDEST SWAP2 POP PUSH2 0xE37 DUP3 PUSH2 0xDF6 JUMP JUMPDEST PUSH1 0x1C DUP3 ADD SWAP1 POP SWAP2 SWAP1 POP JUMP JUMPDEST PUSH1 0x0 DUP2 SWAP1 POP SWAP2 SWAP1 POP JUMP JUMPDEST PUSH2 0xE5D PUSH2 0xE58 DUP3 PUSH2 0x7C8 JUMP JUMPDEST PUSH2 0xE42 JUMP JUMPDEST DUP3 MSTORE POP POP JUMP JUMPDEST PUSH1 0x0 PUSH2 0xE6E DUP3 PUSH2 0xE1F JUMP JUMPDEST SWAP2 POP PUSH2 0xE7A DUP3 DUP5 PUSH2 0xE4C JUMP JUMPDEST PUSH1 0x20 DUP3 ADD SWAP2 POP DUP2 SWAP1 POP SWAP3 SWAP2 POP POP JUMP INVALID LOG2 PUSH5 0x6970667358 0x22 SLT KECCAK256 0xAF ADDRESS PUSH5 0x362F10F74D 0xDB 0xE1 PC REVERT GT PUSH5 0x5FE546920F 0x4D MCOPY SSTORE PUSH26 0x30E558F55E1D9C527664736F6C634300081C0033000000000000 "},"methodIdentifiers":{"getEthSignedMessageHash(bytes32)":"fa540801","getMessageHash(string)":"b446f3b2","mapParticipantsToMeeting(string,address,address[])":"309c1ebb","recoverSigner(bytes32,bytes)":"97aba7f9","splitSignature(bytes)":"a7bb5803","verifyUserAccess(string,bytes)":"ace5e875"}}}}}